{
  "_format": "hh-sol-artifact-1",
  "contractName": "Y",
  "sourceName": "contracts/Y.sol",
  "abi": [
    {
      "inputs": [
        {
          "internalType": "address",
          "name": "owner",
          "type": "address"
        }
      ],
      "stateMutability": "nonpayable",
      "type": "constructor"
    },
    {
      "anonymous": false,
      "inputs": [
        {
          "indexed": true,
          "internalType": "address",
          "name": "module",
          "type": "address"
        }
      ],
      "name": "ModuleAdded",
      "type": "event"
    },
    {
      "anonymous": false,
      "inputs": [
        {
          "indexed": true,
          "internalType": "address",
          "name": "module",
          "type": "address"
        },
        {
          "indexed": false,
          "internalType": "uint256",
          "name": "index",
          "type": "uint256"
        }
      ],
      "name": "ModuleInserted",
      "type": "event"
    },
    {
      "anonymous": false,
      "inputs": [
        {
          "indexed": true,
          "internalType": "address",
          "name": "module",
          "type": "address"
        }
      ],
      "name": "ModuleRemoved",
      "type": "event"
    },
    {
      "anonymous": false,
      "inputs": [
        {
          "indexed": true,
          "internalType": "address",
          "name": "account",
          "type": "address"
        },
        {
          "indexed": true,
          "internalType": "address",
          "name": "ref",
          "type": "address"
        },
        {
          "indexed": true,
          "internalType": "uint256",
          "name": "timestamp",
          "type": "uint256"
        },
        {
          "indexed": false,
          "internalType": "bytes",
          "name": "data",
          "type": "bytes"
        }
      ],
      "name": "Yeeted",
      "type": "event"
    },
    {
      "inputs": [
        {
          "internalType": "address",
          "name": "module",
          "type": "address"
        }
      ],
      "name": "addModule",
      "outputs": [],
      "stateMutability": "nonpayable",
      "type": "function"
    },
    {
      "inputs": [
        {
          "internalType": "address",
          "name": "newOwner",
          "type": "address"
        }
      ],
      "name": "addOwner",
      "outputs": [],
      "stateMutability": "nonpayable",
      "type": "function"
    },
    {
      "inputs": [],
      "name": "avatar",
      "outputs": [
        {
          "internalType": "string",
          "name": "",
          "type": "string"
        }
      ],
      "stateMutability": "view",
      "type": "function"
    },
    {
      "inputs": [],
      "name": "avatarURI",
      "outputs": [
        {
          "internalType": "string",
          "name": "",
          "type": "string"
        }
      ],
      "stateMutability": "view",
      "type": "function"
    },
    {
      "inputs": [],
      "name": "bio",
      "outputs": [
        {
          "internalType": "string",
          "name": "",
          "type": "string"
        }
      ],
      "stateMutability": "view",
      "type": "function"
    },
    {
      "inputs": [],
      "name": "getModules",
      "outputs": [
        {
          "internalType": "address[]",
          "name": "",
          "type": "address[]"
        }
      ],
      "stateMutability": "view",
      "type": "function"
    },
    {
      "inputs": [
        {
          "internalType": "address",
          "name": "module",
          "type": "address"
        }
      ],
      "name": "getYeetstamps",
      "outputs": [
        {
          "internalType": "uint256[]",
          "name": "",
          "type": "uint256[]"
        }
      ],
      "stateMutability": "view",
      "type": "function"
    },
    {
      "inputs": [
        {
          "internalType": "address",
          "name": "module",
          "type": "address"
        },
        {
          "internalType": "uint256",
          "name": "index",
          "type": "uint256"
        }
      ],
      "name": "insertModule",
      "outputs": [],
      "stateMutability": "nonpayable",
      "type": "function"
    },
    {
      "inputs": [
        {
          "internalType": "address",
          "name": "sender",
          "type": "address"
        }
      ],
      "name": "isOwner",
      "outputs": [
        {
          "internalType": "bool",
          "name": "",
          "type": "bool"
        }
      ],
      "stateMutability": "view",
      "type": "function"
    },
    {
      "inputs": [
        {
          "internalType": "address",
          "name": "",
          "type": "address"
        },
        {
          "internalType": "uint256",
          "name": "",
          "type": "uint256"
        }
      ],
      "name": "me",
      "outputs": [
        {
          "internalType": "bytes",
          "name": "",
          "type": "bytes"
        }
      ],
      "stateMutability": "view",
      "type": "function"
    },
    {
      "inputs": [
        {
          "internalType": "uint256",
          "name": "",
          "type": "uint256"
        }
      ],
      "name": "modules",
      "outputs": [
        {
          "internalType": "address",
          "name": "",
          "type": "address"
        }
      ],
      "stateMutability": "view",
      "type": "function"
    },
    {
      "inputs": [
        {
          "internalType": "uint256",
          "name": "",
          "type": "uint256"
        }
      ],
      "name": "owners",
      "outputs": [
        {
          "internalType": "address",
          "name": "",
          "type": "address"
        }
      ],
      "stateMutability": "view",
      "type": "function"
    },
    {
      "inputs": [
        {
          "internalType": "address",
          "name": "module",
          "type": "address"
        },
        {
          "internalType": "uint256",
          "name": "earliest",
          "type": "uint256"
        }
      ],
      "name": "recentBytes",
      "outputs": [
        {
          "internalType": "bytes[]",
          "name": "",
          "type": "bytes[]"
        }
      ],
      "stateMutability": "view",
      "type": "function"
    },
    {
      "inputs": [
        {
          "internalType": "address",
          "name": "module",
          "type": "address"
        },
        {
          "internalType": "uint256",
          "name": "earliest",
          "type": "uint256"
        }
      ],
      "name": "recentJson",
      "outputs": [
        {
          "internalType": "string",
          "name": "",
          "type": "string"
        }
      ],
      "stateMutability": "view",
      "type": "function"
    },
    {
      "inputs": [
        {
          "internalType": "address",
          "name": "module",
          "type": "address"
        }
      ],
      "name": "removeModule",
      "outputs": [],
      "stateMutability": "nonpayable",
      "type": "function"
    },
    {
      "inputs": [
        {
          "internalType": "address",
          "name": "owner",
          "type": "address"
        }
      ],
      "name": "removeOwner",
      "outputs": [],
      "stateMutability": "nonpayable",
      "type": "function"
    },
    {
      "inputs": [
        {
          "internalType": "address",
          "name": "oldOwner",
          "type": "address"
        },
        {
          "internalType": "address",
          "name": "newOwner",
          "type": "address"
        }
      ],
      "name": "replaceOwner",
      "outputs": [],
      "stateMutability": "nonpayable",
      "type": "function"
    },
    {
      "inputs": [
        {
          "internalType": "address",
          "name": "nftContract",
          "type": "address"
        },
        {
          "internalType": "uint256",
          "name": "tokenId",
          "type": "uint256"
        }
      ],
      "name": "setAvatar",
      "outputs": [],
      "stateMutability": "nonpayable",
      "type": "function"
    },
    {
      "inputs": [
        {
          "internalType": "string",
          "name": "_newBio",
          "type": "string"
        }
      ],
      "name": "setBio",
      "outputs": [],
      "stateMutability": "nonpayable",
      "type": "function"
    },
    {
      "inputs": [
        {
          "internalType": "string",
          "name": "_newUsername",
          "type": "string"
        }
      ],
      "name": "setUsername",
      "outputs": [],
      "stateMutability": "nonpayable",
      "type": "function"
    },
    {
      "inputs": [],
      "name": "username",
      "outputs": [
        {
          "internalType": "string",
          "name": "",
          "type": "string"
        }
      ],
      "stateMutability": "view",
      "type": "function"
    },
    {
      "inputs": [
        {
          "internalType": "address",
          "name": "module",
          "type": "address"
        },
        {
          "internalType": "uint256",
          "name": "earliest",
          "type": "uint256"
        }
      ],
      "name": "wall",
      "outputs": [
        {
          "internalType": "string",
          "name": "",
          "type": "string"
        }
      ],
      "stateMutability": "view",
      "type": "function"
    },
    {
      "inputs": [
        {
          "internalType": "uint256",
          "name": "earliest",
          "type": "uint256"
        }
      ],
      "name": "walls",
      "outputs": [
        {
          "internalType": "string",
          "name": "",
          "type": "string"
        }
      ],
      "stateMutability": "view",
      "type": "function"
    },
    {
      "inputs": [],
      "name": "withdraw",
      "outputs": [],
      "stateMutability": "nonpayable",
      "type": "function"
    },
    {
      "inputs": [
        {
          "internalType": "address",
          "name": "module",
          "type": "address"
        },
        {
          "internalType": "bytes",
          "name": "_data",
          "type": "bytes"
        }
      ],
      "name": "yeet",
      "outputs": [
        {
          "internalType": "bool",
          "name": "success",
          "type": "bool"
        },
        {
          "internalType": "bytes",
          "name": "response",
          "type": "bytes"
        }
      ],
      "stateMutability": "nonpayable",
      "type": "function"
    },
    {
      "inputs": [
        {
          "internalType": "address",
          "name": "",
          "type": "address"
        },
        {
          "internalType": "uint256",
          "name": "",
          "type": "uint256"
        }
      ],
      "name": "yeetstamps",
      "outputs": [
        {
          "internalType": "uint256",
          "name": "",
          "type": "uint256"
        }
      ],
      "stateMutability": "view",
      "type": "function"
    },
    {
      "stateMutability": "payable",
      "type": "receive"
    }
  ],
  "bytecode": "0x6080346100e757601f611f9238819003918201601f19168301916001600160401b038311848410176100d1578084926020946040528339810103126100e757516001600160a01b038116908190036100e757600654680100000000000000008110156100d15760018101806006558110156100bb5760066000527ff652222313e28459528d920b65115c16c04f3efc82aaedc97be59f3f377c0d3f0180546001600160a01b0319169091179055604051611ea590816100ed8239f35b634e487b7160e01b600052603260045260246000fd5b634e487b7160e01b600052604160045260246000fd5b600080fdfe6080604081815260049182361015610022575b505050361561002057600080fd5b005b600091823560e01c918263025e7c27146112f8575081631464f73d146112c3578163173825d9146111f25781631ed86f19146111bd5781632f54bf6e1461118e5781633ccfd60b14611148578163550a3dba146111265781635aef7de614610eaf57816361fac54d1461105357816367e28f5b14610fb35781637065cb4814610f6657816381b2248a14610f0d57816381d0104d14610ec25781638cbf6de014610eaf57816395a48be014610d39578163a063246114610be6578163b2494df314610b22578163b3dae80614610886578163cb4eb030146107e1578163ce7c720b146107a4578163cfdf56b414610751578163d7aee7a5146105d1578163e20056e614610521578163ed59313a146103b0578163f516b422146102c1575063fb7e06d814610151575b80610012565b346102be5761015f366116f5565b91610168611da1565b825167ffffffffffffffff81116102ab57610183825461157e565b601f8111610249575b50602080601f83116001146101c957508394829394926101be575b50508160011b916000199060031b1c191617905580f35b0151905038806101a7565b838552601f198316957f8a35acfbc15ff81a39ae7d344fd709f28e8600b4aa8c65c6b64bfe7fe36bd19b929186905b88821061023157505083600195969710610218575b505050811b01905580f35b015160001960f88460031b161c1916905538808061020d565b806001859682949686015181550195019301906101f8565b8284527f8a35acfbc15ff81a39ae7d344fd709f28e8600b4aa8c65c6b64bfe7fe36bd19b601f830160051c810191602084106102a1575b601f0160051c01905b818110610296575061018c565b848155600101610289565b9091508190610280565b634e487b7160e01b835260418252602483fd5b80fd5b839150346103ac57826003193601126103ac57805191838154906102e48261157e565b808652926001928084169081156103815750600114610325575b610321868661030f828b0383611680565b51918291602083526020830190611410565b0390f35b815294507f8a35acfbc15ff81a39ae7d344fd709f28e8600b4aa8c65c6b64bfe7fe36bd19b5b8286106103695750505061030f8260206103219582010194866102fe565b8054602087870181019190915290950194810161034b565b905061032197508693506020925061030f94915060ff191682840152151560051b82010194866102fe565b8280fd5b5050346102be576103c0366116f5565b916103c9611da1565b82519067ffffffffffffffff821161050e57506003906103e9825461157e565b601f81116104ac575b50602080601f831160011461042e5750839482939492610423575b50508160011b9160001990841b1c191617905580f35b01519050388061040d565b838552601f198316957fc2575a0e9e593c00f959f8c92f12db2869c3395a3b0502d05e2516446f71f85b929186905b8882106104945750508360019596971061047c57505050811b01905580f35b015160001983861b60f8161c1916905538808061020d565b8060018596829496860151815501950193019061045d565b8284527fc2575a0e9e593c00f959f8c92f12db2869c3395a3b0502d05e2516446f71f85b601f830160051c81019160208410610504575b601f0160051c01905b8181106104f957506103f2565b8481556001016104ec565b90915081906104e3565b634e487b7160e01b835260419052602482fd5b9050346105cd573660031901126102be5761053a6113d2565b6024356001600160a01b0380821682036105c95791610557611da1565b8216835b6006548110156105c25781846105708361134e565b90549060031b1c161461058b57610586906117ee565b61055b565b6105bf935061059a915061134e565b90919082549060031b916001600160a01b039283811b93849216901b16911916179055565b80f35b5050505080f35b8380fd5b5080fd5b8383346102be57826003193601126102be576105eb6113d2565b9267ffffffffffffffff6024358181116105c957366023820112156105c95761061d90369060248188013591016116be565b92610626611da1565b825191818080602099868b8098019063d7aee7a560e01b8252610675816106676001600160a01b0386169d8e60248401528d60448401526064830190611410565b03601f198101835282611680565b51915af4963d15610749573d9661068b886116a2565b976106988851998a611680565b88523d83878a013e5b8651958692634e2cbfad60e11b84528301528183816106c3602482018c611410565b03925af1801561073f576106ef575b505050908180610321935195869515158652850152830190611410565b3d8083853e6106fe8185611680565b83019287818503126103ac5780519182116103ac57019082601f830112156102be5750610321939291818761073593519101611734565b50909185806106d2565b84513d84823e3d90fd5b6060966106a1565b9050346105cd57806003193601126105cd578061030f61079d92610321946001600160a01b0361077f6113d2565b168152806020528181206024358252602052208251938480926115b8565b0383611680565b9050346105cd57806003193601126105cd57610321906107ce6107c56113d2565b60243590611aff565b9051918291602083526020830190611410565b9050346105cd576020806003193601126103ac57916001600160a01b036108066113d2565b16815260019081845282812093835190818187549182815201908197855282852090855b8181106108735750505082610840910383611680565b8451948186019282875251809352850195925b8281106108605785870386f35b8351875295810195928101928401610853565b825484529284019291870191870161082a565b8284346105cd57826003193601126105cd576108a06113d2565b6024356108ab611da1565b6001600160a01b038092169085516331a9108f60e11b815281858201526020938482602481875afa918215610b18578792610adc575b5033911603610a99578490602487518094819363c87b56dd60e01b8352888301525afa948515610a9057508394610a6c575b5083519167ffffffffffffffff8311610a59575061093260025461157e565b601f81116109f7575b5080601f83116001146109765750829382939261096b575b50508160011b916000199060031b1c19161760025580f35b015190508380610953565b60028452601f198316947f405787fa12a823e0f2b7631cc41b3ba8828b3321ca811111fa75cd3aa3bb5ace929185905b8782106109df5750508360019596106109c6575b505050811b0160025580f35b015160001960f88460031b161c191690558380806109ba565b806001859682949686015181550195019301906109a6565b600284527f405787fa12a823e0f2b7631cc41b3ba8828b3321ca811111fa75cd3aa3bb5ace601f840160051c810191838510610a4f575b601f0160051c01905b818110610a44575061093b565b848155600101610a37565b9091508190610a2e565b634e487b7160e01b845260419052602483fd5b610a899194503d8085833e610a818183611680565b81019061176b565b9284610913565b513d85823e3d90fd5b855162461bcd60e51b8152808501849052601b60248201527f43616c6c657220646f6573206e6f74206f776e20746865204e465400000000006044820152606490fd5b9091508481813d8311610b11575b610af48183611680565b81010312610b0d57518181168103610b0d5790886108e1565b8680fd5b503d610aea565b88513d89823e3d90fd5b82346102be57806003193601126102be579080519182906005549182855260208095018093600584527f036b6384b5eca791c62761152d0c79bb0604c104a5fb6f4eb0703f3154bb3db090845b818110610bc95750505081610b85910382611680565b83519485948186019282875251809352850193925b828110610ba957505050500390f35b83516001600160a01b031685528695509381019392810192600101610b9a565b82546001600160a01b031684529288019260019283019201610b6f565b5050346102be5760203660031901126102be57610c016113d2565b610c09611da1565b610c143233146117a2565b6001600160a01b0390811690825b60058054821015610d2e578284610c388461139b565b929054600393841b1c1614610c57575050610c52906117ee565b610c22565b92939094915b85546000198101908111610ca857811015610cbb5760018101808211610ca85790610c9e86610c8e610ca39461139b565b905490881b1c1661059a8361139b565b6117ee565b610c5d565b634e487b7160e01b845260118852602484fd5b509392509390508154908115610d1b57506000190190610cf2610cdd8361139b565b6001600160a01b0382549160031b1b19169055565b555b7f0a1ee69f55c33d8467c69ca59ce2007a737a88603d75392972520bf67cb513b88280a280f35b634e487b7160e01b855260319052602484fd5b505050909150610cf4565b839150346103ac57806003193601126103ac57610d546113d2565b90602492833593610d63611da1565b610d6e3233146117a2565b600554808610610dbb575050506001600160a01b0382602092610db17ff10bf8c59b276b87365bcfe05e009d4037cc8514ba679cee3b4841dc249bdc2a95611813565b519485521692a280f35b68010000000000000000811015610e9d57806001610ddc920160055561139b565b9190928354936001600160a01b039485600395861b1b191690556005549360001994858101908111610e79575b888111610e55575050505050506001600160a01b0382602092610e507ff10bf8c59b276b87365bcfe05e009d4037cc8514ba679cee3b4841dc249bdc2a9561059a8861139b565b610db1565b858101818111610e8b5782610c8e610e6c9261139b565b8015610e79578501610e09565b634e487b7160e01b8a5260118352838afd5b634e487b7160e01b8b5260118452848bfd5b50634e487b7160e01b86526041825285fd5b50505050610ebb611497565b388061014b565b9050346105cd57806003193601126105cd57610edc6113d2565b6001600160a01b0360243591168352600160205281832080548210156105c957835260209283902001549051908152f35b905082346103ac5760203660031901126103ac57356005548110156103ac576001600160a01b03906005602094527f036b6384b5eca791c62761152d0c79bb0604c104a5fb6f4eb0703f3154bb3db00154169051908152f35b5050346102be5760203660031901126102be57610f816113d2565b610f89611da1565b600654926801000000000000000084101561050e575061059a8360016105bf94950160065561134e565b839150346103ac5782816003193601126102be5761100192610fd36113d2565b610fdf60243582611962565b916001600160a01b038551809781958294633b5739bb60e21b84528301611435565b0392165afa9182156110495783610321949361102c575b505051918291602083526020830190611410565b6110419293503d8091833e610a818183611680565b908380611018565b81513d85823e3d90fd5b9050346105cd57816003193601126105cd57805190826003546110758161157e565b808552916001918083169081156110fe57506001146110a1575b50505061030f82610321940383611680565b9450600385527fc2575a0e9e593c00f959f8c92f12db2869c3395a3b0502d05e2516446f71f85b5b8286106110e65750505061030f826020610321958201019461108f565b805460208787018101919091529095019481016110c9565b61032197508693506020925061030f94915060ff191682840152151560051b8201019461108f565b919050346102be5760203660031901126102be57506107ce6103219235611cb1565b9050346105cd57816003193601126105cd57611162611da1565b8180808047818115611185575b3390f11561117b575080f35b51903d90823e3d90fd5b506108fc61116f565b9050346105cd5760203660031901126105cd576020906111b46111af6113d2565b611e48565b90519015158152f35b82346102be5760203660031901126102be576105bf6111da6113d2565b6111e2611da1565b6111ed3233146117a2565b61183b565b8284346105cd5760203660031901126105cd5761120d6113d2565b611215611da1565b6001600160a01b03908116835b60068054808310156112ba5784846112398561134e565b929054600393841b1c161461125957505050611254906117ee565b611222565b909491959350600019948581019081116112a7579161059a9161127f61128b959461134e565b9054911b1c169161134e565b8254908115610d1b575001906112a3610cdd8361134e565b5580f35b634e487b7160e01b885260118552602488fd5b50505050505080f35b9050346105cd57806003193601126105cd57610321906112ed6112e46113d2565b60243590611962565b905191829182611435565b839085346103ac5760203660031901126103ac57356006548110156103ac576001600160a01b03906006602094527ff652222313e28459528d920b65115c16c04f3efc82aaedc97be59f3f377c0d3f0154168152f35b6006548110156113855760066000527ff652222313e28459528d920b65115c16c04f3efc82aaedc97be59f3f377c0d3f0190600090565b634e487b7160e01b600052603260045260246000fd5b6005548110156113855760056000527f036b6384b5eca791c62761152d0c79bb0604c104a5fb6f4eb0703f3154bb3db00190600090565b600435906001600160a01b03821682036113e857565b600080fd5b60005b8381106114005750506000910152565b81810151838201526020016113f0565b90602091611429815180928185528580860191016113ed565b601f01601f1916010190565b602080820190808352835180925260408301928160408460051b8301019501936000915b8483106114695750505050505090565b9091929394958480611487600193603f198682030187528a51611410565b9801930193019194939290611459565b50346113e8576000806003193601126102be5760405190806002546114bb8161157e565b8085529160019180831690811561155457506001146114f9575b610321856114e581870382611680565b604051918291602083526020830190611410565b9250600283527f405787fa12a823e0f2b7631cc41b3ba8828b3321ca811111fa75cd3aa3bb5ace5b82841061153c5750505081016020016114e5826103216114d5565b80546020858701810191909152909301928101611521565b869550610321969350602092506114e594915060ff191682840152151560051b82010192936114d5565b90600182811c921680156115ae575b602083101461159857565b634e487b7160e01b600052602260045260246000fd5b91607f169161158d565b90600092918054916115c98361157e565b91828252600193848116908160001461162b57506001146115eb575b50505050565b90919394506000526020928360002092846000945b8386106116175750505050010190388080806115e5565b805485870183015294019385908201611600565b9294505050602093945060ff191683830152151560051b010190388080806115e5565b6020810190811067ffffffffffffffff82111761166a57604052565b634e487b7160e01b600052604160045260246000fd5b90601f8019910116810190811067ffffffffffffffff82111761166a57604052565b67ffffffffffffffff811161166a57601f01601f191660200190565b9291926116ca826116a2565b916116d86040519384611680565b8294818452818301116113e8578281602093846000960137010152565b60206003198201126113e8576004359067ffffffffffffffff82116113e857806023830112156113e857816024611731936004013591016116be565b90565b90929192611741816116a2565b9161174f6040519384611680565b8294828452828201116113e85760206117699301906113ed565b565b6020818303126113e85780519067ffffffffffffffff82116113e857019080601f830112156113e857815161173192602001611734565b156117a957565b60405162461bcd60e51b815260206004820152601860248201527f64656c656761746563616c6c206e6f7420616c6c6f77656400000000000000006044820152606490fd5b60001981146117fd5760010190565b634e487b7160e01b600052601160045260246000fd5b600554906801000000000000000082101561166a5761059a826001611769940160055561139b565b6005549060005b82811061188557506001600160a01b03915061185d81611813565b167fead6a006345da1073a106d5f32372d2d2204f46cb0b4bca8f5ebafcbbed12b8a600080a2565b61188e8161139b565b90546001600160a01b03908185169260031b1c16146118b5576118b0906117ee565b611842565b505050565b67ffffffffffffffff811161166a5760051b60200190565b906118dc826118ba565b6118e96040519182611680565b82815280926118fa601f19916118ba565b019060005b82811061190b57505050565b8060606020809385010152016118ff565b90611926826118ba565b6119336040519182611680565b8281528092611944601f19916118ba565b0190602036910137565b80518210156113855760209160051b010190565b6001600160a01b031690600090828252600191602091838352604092838320918451808484829654938481520190875284872092875b8a87838310611aea57505050506119b192500384611680565b825115611ab157856119c3845161191c565b93859283835b611a56575b50505050506119dd82516118d2565b9583865b6119f0575b5050505050505090565b8351811015611a5157611a4b90828652858452868620611a10828761194e565b5187528452611a29611a308888208951928380926115b8565b0382611680565b611a3a828b61194e565b52611a45818a61194e565b506117ee565b866119e1565b6119e6565b8251811015611aac5781611a6a828561194e565b511015611a81575b611a7b906117ee565b836119c9565b93611aa4611a7b91611a93878661194e565b51611a9e828b61194e565b526117ee565b949050611a72565b6119ce565b50945050915080519283019083821067ffffffffffffffff831117611ad65752815290565b634e487b7160e01b83526041600452602483fd5b86548552958101958995509093019201611998565b6001600160a01b03909291921691600083815260019360209480865260409384842090855180838a82955493848152019088528a882092885b878d838310611c9c5750505050611b5192500383611680565b815115611c855782611b63835161191c565b92869283835b611c30575b5050505050611b7d81516118d2565b9684835b611bd7575b505050508293948291611bac94518080968194636f394b8360e01b835260048301611435565b03915afa92831561117b57508092611bc357505090565b61173192503d8091833e610a818183611680565b8251811015611c2b57611c2590858752868352878720611bf7828661194e565b5188528352611a29611c108989208a51928380926115b8565b611c1a828c61194e565b52611a45818b61194e565b83611b81565b611b86565b8251811015611c805781611c44828561194e565b511015611c5b575b611c55906117ee565b83611b69565b93611c78611c5591611c6d878661194e565b51611a9e828a61194e565b949050611c4c565b611b6e565b505050509192505190611c978261164e565b815290565b86548552958101958895509093019201611b38565b6040908151611cbf8161164e565b6000815291600554918215611d565791906000925b828410611ce2575050505090565b90919293611d4e90611d48611d0f846001600160a01b03611d028a61139b565b90549060031b1c16611aff565b91855180938251611d28816020958680870191016113ed565b8201611d3c825180938680850191016113ed565b01038084520182611680565b946117ee565b929190611cd4565b5080519250828101915067ffffffffffffffff82118383101761166a5752600a81527f6e6f206d6f64756c657300000000000000000000000000000000000000000000602082015290565b600080600654905b818110611e0f575b50508015611e06575b15611dc157565b60405162461bcd60e51b815260206004820152600a60248201527f6f6e6c79206f776e6572000000000000000000000000000000000000000000006044820152606490fd5b50303314611dba565b6001600160a01b03611e208261134e565b90549060031b1c163314611e3c57611e37906117ee565b611da9565b50505060013880611db1565b6006549060005b828110611e5e57505050600090565b611e678161134e565b906001600160a01b03918291549060031b1c1690831614611e9057611e8b906117ee565b611e4f565b50505060019056fea164736f6c6343000811000a",
  "linkReferences": {},
  "deployedLinkReferences": {}
}