{
  "_format": "hh-sol-artifact-1",
  "contractName": "YFactory",
  "sourceName": "contracts/YFactory.sol",
  "abi": [
    {
      "anonymous": false,
      "inputs": [
        {
          "indexed": true,
          "internalType": "address",
          "name": "y",
          "type": "address"
        },
        {
          "indexed": true,
          "internalType": "address",
          "name": "creator",
          "type": "address"
        }
      ],
      "name": "Created",
      "type": "event"
    },
    {
      "inputs": [],
      "name": "create",
      "outputs": [
        {
          "internalType": "address",
          "name": "",
          "type": "address"
        }
      ],
      "stateMutability": "nonpayable",
      "type": "function"
    },
    {
      "inputs": [],
      "name": "getMy",
      "outputs": [
        {
          "internalType": "address[]",
          "name": "",
          "type": "address[]"
        }
      ],
      "stateMutability": "view",
      "type": "function"
    },
    {
      "inputs": [
        {
          "internalType": "address",
          "name": "creator",
          "type": "address"
        }
      ],
      "name": "getYs",
      "outputs": [
        {
          "internalType": "address[]",
          "name": "",
          "type": "address[]"
        }
      ],
      "stateMutability": "view",
      "type": "function"
    },
    {
      "inputs": [
        {
          "internalType": "address",
          "name": "",
          "type": "address"
        },
        {
          "internalType": "uint256",
          "name": "",
          "type": "uint256"
        }
      ],
      "name": "mY",
      "outputs": [
        {
          "internalType": "address",
          "name": "",
          "type": "address"
        }
      ],
      "stateMutability": "view",
      "type": "function"
    }
  ],
  "bytecode": "0x608060405234801561001057600080fd5b506118c4806100206000396000f3fe608060405234801561001057600080fd5b506004361061004c5760003560e01c80638b5462da146100515780639603ee881461006f578063bd4b3ccf14610082578063efc81a8c146100ad575b600080fd5b6100596100b5565b6040516100669190610299565b60405180910390f35b61005961007d366004610302565b61011e565b610095610090366004610324565b610192565b6040516001600160a01b039091168152602001610066565b6100956101ca565b336000908152602081815260409182902080548351818402810184019094528084526060939283018282801561011457602002820191906000526020600020905b81546001600160a01b031681526001909101906020018083116100f6575b5050505050905090565b6001600160a01b0381166000908152602081815260409182902080548351818402810184019094528084526060939283018282801561018657602002820191906000526020600020905b81546001600160a01b03168152600190910190602001808311610168575b50505050509050919050565b600060205281600052604060002081815481106101ae57600080fd5b6000918252602090912001546001600160a01b03169150829050565b600080336040516101da9061028c565b6001600160a01b039091168152602001604051809103906000f080158015610206573d6000803e3d6000fd5b5033600081815260208181526040808320805460018101825590845291832090910180547fffffffffffffffffffffffff0000000000000000000000000000000000000000166001600160a01b038616908117909155905193945091927f587ece4cd19692c5be1a4184503d607d45542d2aca0698c0068f52e09ccb541c9190a3919050565b6115698061034f83390190565b6020808252825182820181905260009190848201906040850190845b818110156102da5783516001600160a01b0316835292840192918401916001016102b5565b50909695505050505050565b80356001600160a01b03811681146102fd57600080fd5b919050565b60006020828403121561031457600080fd5b61031d826102e6565b9392505050565b6000806040838503121561033757600080fd5b610340836102e6565b94602093909301359350505056fe608060405234801561001057600080fd5b5060405161156938038061156983398101604081905261002f91610084565b600380546001810182556000919091527fc2575a0e9e593c00f959f8c92f12db2869c3395a3b0502d05e2516446f71f85b0180546001600160a01b0319166001600160a01b03929092169190911790556100b4565b60006020828403121561009657600080fd5b81516001600160a01b03811681146100ad57600080fd5b9392505050565b6114a6806100c36000396000f3fe6080604052600436106100e15760003560e01c806395a48be01161007f578063cb4eb03011610059578063cb4eb0301461026e578063ce7c720b1461029b578063cfdf56b4146102bb578063d7aee7a5146102db57600080fd5b806395a48be01461020c578063a06324611461022c578063b2494df31461024c57600080fd5b80633ccfd60b116100bb5780633ccfd60b1461017c578063550a3dba1461019157806381b2248a146101be57806381d0104d146101de57600080fd5b8063025e7c27146100ed5780631ed86f191461012a5780632f54bf6e1461014c57600080fd5b366100e857005b600080fd5b3480156100f957600080fd5b5061010d610108366004610ff3565b610309565b6040516001600160a01b0390911681526020015b60405180910390f35b34801561013657600080fd5b5061014a610145366004611028565b610333565b005b34801561015857600080fd5b5061016c610167366004611028565b610463565b6040519015158152602001610121565b34801561018857600080fd5b5061014a6104c7565b34801561019d57600080fd5b506101b16101ac366004610ff3565b6104fb565b604051610121919061109a565b3480156101ca57600080fd5b5061010d6101d9366004610ff3565b610588565b3480156101ea57600080fd5b506101fe6101f93660046110ad565b610598565b604051908152602001610121565b34801561021857600080fd5b5061014a6102273660046110ad565b6105c9565b34801561023857600080fd5b5061014a610247366004611028565b6107e2565b34801561025857600080fd5b5061026161099c565b60405161012191906110d7565b34801561027a57600080fd5b5061028e610289366004611028565b6109fe565b6040516101219190611124565b3480156102a757600080fd5b506101b16102b63660046110ad565b610a6a565b3480156102c757600080fd5b506101b16102d63660046110ad565b610d6e565b3480156102e757600080fd5b506102fb6102f63660046111cb565b610e10565b60405161012192919061125c565b6003818154811061031957600080fd5b6000918252602090912001546001600160a01b0316905081565b61033b610f44565b33321461038f5760405162461bcd60e51b815260206004820152601860248201527f64656c656761746563616c6c206e6f7420616c6c6f776564000000000000000060448201526064015b60405180910390fd5b60005b6002548110156103e957816001600160a01b0316600282815481106103b9576103b961127f565b6000918252602090912001546001600160a01b0316036103d7575050565b806103e1816112ab565b915050610392565b506002805460018101825560009182527f405787fa12a823e0f2b7631cc41b3ba8828b3321ca811111fa75cd3aa3bb5ace0180546001600160a01b0319166001600160a01b03841690811790915560405190917fead6a006345da1073a106d5f32372d2d2204f46cb0b4bca8f5ebafcbbed12b8a91a25b50565b6000805b6003548110156104be57600381815481106104845761048461127f565b6000918252602090912001546001600160a01b03908116908416036104ac5750600192915050565b806104b6816112ab565b915050610467565b50600092915050565b6104cf610f44565b60405133904780156108fc02916000818181858888f19350505050158015610460573d6000803e3d6000fd5b60408051602081019091526000808252606091905b600254811015610581578161054c600283815481106105315761053161127f565b6000918252602090912001546001600160a01b031686610a6a565b60405160200161055d9291906112c4565b60405160208183030381529060405291508080610579906112ab565b915050610510565b5092915050565b6002818154811061031957600080fd5b600160205281600052604060002081815481106105b457600080fd5b90600052602060002001600091509150505481565b6105d1610f44565b3332146106205760405162461bcd60e51b815260206004820152601860248201527f64656c656761746563616c6c206e6f7420616c6c6f77656400000000000000006044820152606401610386565b600254811061067957600280546001810182556000919091527f405787fa12a823e0f2b7631cc41b3ba8828b3321ca811111fa75cd3aa3bb5ace0180546001600160a01b0319166001600160a01b03841617905561079b565b600280546001818101835560008381527f405787fa12a823e0f2b7631cc41b3ba8828b3321ca811111fa75cd3aa3bb5ace90920180546001600160a01b0319169055915490916106c8916112f3565b90505b818111156107575760026106e06001836112f3565b815481106106f0576106f061127f565b600091825260209091200154600280546001600160a01b03909216918390811061071c5761071c61127f565b600091825260209091200180546001600160a01b0319166001600160a01b03929092169190911790558061074f81611306565b9150506106cb565b50816002828154811061076c5761076c61127f565b9060005260206000200160006101000a8154816001600160a01b0302191690836001600160a01b031602179055505b816001600160a01b03167ff10bf8c59b276b87365bcfe05e009d4037cc8514ba679cee3b4841dc249bdc2a826040516107d691815260200190565b60405180910390a25050565b6107ea610f44565b3332146108395760405162461bcd60e51b815260206004820152601860248201527f64656c656761746563616c6c206e6f7420616c6c6f77656400000000000000006044820152606401610386565b60005b60025481101561096457816001600160a01b0316600282815481106108635761086361127f565b6000918252602090912001546001600160a01b03160361095257805b60025461088e906001906112f3565b8110156109195760026108a282600161131d565b815481106108b2576108b261127f565b600091825260209091200154600280546001600160a01b0390921691839081106108de576108de61127f565b600091825260209091200180546001600160a01b0319166001600160a01b039290921691909117905580610911816112ab565b91505061087f565b50600280548061092b5761092b611330565b600082815260209020810160001990810180546001600160a01b0319169055019055610964565b8061095c816112ab565b91505061083c565b506040516001600160a01b038216907f0a1ee69f55c33d8467c69ca59ce2007a737a88603d75392972520bf67cb513b890600090a250565b606060028054806020026020016040519081016040528092919081815260200182805480156109f457602002820191906000526020600020905b81546001600160a01b031681526001909101906020018083116109d6575b5050505050905090565b6001600160a01b038116600090815260016020908152604091829020805483518184028101840190945280845260609392830182828015610a5e57602002820191906000526020600020905b815481526020019060010190808311610a4a575b50505050509050919050565b60606000610a77846109fe565b90508051600003610abd57505060408051808201909152600a81527f6e6f20636f6e74656e74000000000000000000000000000000000000000000006020820152610d68565b6000815167ffffffffffffffff811115610ad957610ad961115c565b604051908082528060200260200182016040528015610b02578160200160208202803683370190505b5090506000805b8351811015610b895785848281518110610b2557610b2561127f565b602002602001015110610b7757838181518110610b4457610b4461127f565b6020026020010151838381518110610b5e57610b5e61127f565b602090810291909101015281610b73816112ab565b9250505b80610b81816112ab565b915050610b09565b506000825167ffffffffffffffff811115610ba657610ba661115c565b604051908082528060200260200182016040528015610bd957816020015b6060815260200190600190039081610bc45790505b50905060005b8351811015610cef57600080896001600160a01b03166001600160a01b031681526020019081526020016000206000858381518110610c2057610c2061127f565b602002602001015181526020019081526020016000208054610c4190611346565b80601f0160208091040260200160405190810160405280929190818152602001828054610c6d90611346565b8015610cba5780601f10610c8f57610100808354040283529160200191610cba565b820191906000526020600020905b815481529060010190602001808311610c9d57829003601f168201915b5050505050828281518110610cd157610cd161127f565b60200260200101819052508080610ce7906112ab565b915050610bdf565b50604051636f394b8360e01b81526001600160a01b03881690636f394b8390610d1c908490600401611380565b600060405180830381865afa158015610d39573d6000803e3d6000fd5b505050506040513d6000823e601f3d908101601f19168201604052610d619190810190611412565b9450505050505b92915050565b600060208181529281526040808220909352908152208054610d8f90611346565b80601f0160208091040260200160405190810160405280929190818152602001828054610dbb90611346565b8015610e085780601f10610ddd57610100808354040283529160200191610e08565b820191906000526020600020905b815481529060010190602001808311610deb57829003601f168201915b505050505081565b60006060610e1c610f44565b836001600160a01b03168484604051602401610e3992919061145b565b60408051601f198184030181529181526020820180517bffffffffffffffffffffffffffffffffffffffffffffffffffffffff1663d7aee7a560e01b17905251610e83919061147d565b600060405180830381855af49150503d8060008114610ebe576040519150601f19603f3d011682016040523d82523d6000602084013e610ec3565b606091505b50604051634e2cbfad60e11b815291935091506001600160a01b03851690639c597f5a90610ef590849060040161109a565b6000604051808303816000875af1158015610f14573d6000803e3d6000fd5b505050506040513d6000823e601f3d908101601f19168201604052610f3c9190810190611412565b509250929050565b6000805b600354811015610f9b5760038181548110610f6557610f6561127f565b6000918252602090912001546001600160a01b03163303610f895760019150610f9b565b80610f93816112ab565b915050610f48565b508080610fa757503330145b6104605760405162461bcd60e51b815260206004820152600a60248201527f6f6e6c79206f776e6572000000000000000000000000000000000000000000006044820152606401610386565b60006020828403121561100557600080fd5b5035919050565b80356001600160a01b038116811461102357600080fd5b919050565b60006020828403121561103a57600080fd5b6110438261100c565b9392505050565b60005b8381101561106557818101518382015260200161104d565b50506000910152565b6000815180845261108681602086016020860161104a565b601f01601f19169290920160200192915050565b602081526000611043602083018461106e565b600080604083850312156110c057600080fd5b6110c98361100c565b946020939093013593505050565b6020808252825182820181905260009190848201906040850190845b818110156111185783516001600160a01b0316835292840192918401916001016110f3565b50909695505050505050565b6020808252825182820181905260009190848201906040850190845b8181101561111857835183529284019291840191600101611140565b634e487b7160e01b600052604160045260246000fd5b604051601f8201601f1916810167ffffffffffffffff8111828210171561119b5761119b61115c565b604052919050565b600067ffffffffffffffff8211156111bd576111bd61115c565b50601f01601f191660200190565b600080604083850312156111de57600080fd5b6111e78361100c565b9150602083013567ffffffffffffffff81111561120357600080fd5b8301601f8101851361121457600080fd5b8035611227611222826111a3565b611172565b81815286602083850101111561123c57600080fd5b816020840160208301376000602083830101528093505050509250929050565b8215158152604060208201526000611277604083018461106e565b949350505050565b634e487b7160e01b600052603260045260246000fd5b634e487b7160e01b600052601160045260246000fd5b6000600182016112bd576112bd611295565b5060010190565b600083516112d681846020880161104a565b8351908301906112ea81836020880161104a565b01949350505050565b81810381811115610d6857610d68611295565b60008161131557611315611295565b506000190190565b80820180821115610d6857610d68611295565b634e487b7160e01b600052603160045260246000fd5b600181811c9082168061135a57607f821691505b60208210810361137a57634e487b7160e01b600052602260045260246000fd5b50919050565b6000602080830181845280855180835260408601915060408160051b870101925083870160005b828110156113d557603f198886030184526113c385835161106e565b945092850192908501906001016113a7565b5092979650505050505050565b60006113f0611222846111a3565b905082815283838301111561140457600080fd5b61104383602083018461104a565b60006020828403121561142457600080fd5b815167ffffffffffffffff81111561143b57600080fd5b8201601f8101841361144c57600080fd5b611277848251602084016113e2565b6001600160a01b0383168152604060208201526000611277604083018461106e565b6000825161148f81846020870161104a565b919091019291505056fea164736f6c6343000811000aa164736f6c6343000811000a",
  "linkReferences": {},
  "deployedLinkReferences": {}
}