{
  "_format": "hh-sol-artifact-1",
  "contractName": "Yo",
  "sourceName": "contracts/Yo.sol",
  "abi": [
    {
      "inputs": [],
      "stateMutability": "nonpayable",
      "type": "constructor"
    },
    {
      "anonymous": false,
      "inputs": [
        {
          "indexed": true,
          "internalType": "address",
          "name": "account",
          "type": "address"
        },
        {
          "indexed": true,
          "internalType": "uint256",
          "name": "timestamp",
          "type": "uint256"
        },
        {
          "components": [
            {
              "internalType": "address",
              "name": "account",
              "type": "address"
            },
            {
              "internalType": "uint256",
              "name": "timestamp",
              "type": "uint256"
            },
            {
              "internalType": "string",
              "name": "text",
              "type": "string"
            }
          ],
          "indexed": false,
          "internalType": "struct Yeet",
          "name": "data",
          "type": "tuple"
        }
      ],
      "name": "Saved",
      "type": "event"
    },
    {
      "anonymous": false,
      "inputs": [
        {
          "indexed": true,
          "internalType": "address",
          "name": "account",
          "type": "address"
        },
        {
          "indexed": true,
          "internalType": "address",
          "name": "ref",
          "type": "address"
        },
        {
          "indexed": true,
          "internalType": "uint256",
          "name": "timestamp",
          "type": "uint256"
        },
        {
          "indexed": false,
          "internalType": "bytes",
          "name": "data",
          "type": "bytes"
        }
      ],
      "name": "Yeeted",
      "type": "event"
    },
    {
      "inputs": [
        {
          "internalType": "bytes",
          "name": "_data",
          "type": "bytes"
        }
      ],
      "name": "deserialize",
      "outputs": [
        {
          "components": [
            {
              "internalType": "address",
              "name": "account",
              "type": "address"
            },
            {
              "internalType": "uint256",
              "name": "timestamp",
              "type": "uint256"
            },
            {
              "internalType": "string",
              "name": "text",
              "type": "string"
            }
          ],
          "internalType": "struct Yeet",
          "name": "_yeet",
          "type": "tuple"
        }
      ],
      "stateMutability": "pure",
      "type": "function"
    },
    {
      "inputs": [
        {
          "internalType": "bytes[]",
          "name": "_yts",
          "type": "bytes[]"
        }
      ],
      "name": "feed",
      "outputs": [
        {
          "internalType": "string",
          "name": "",
          "type": "string"
        }
      ],
      "stateMutability": "pure",
      "type": "function"
    },
    {
      "inputs": [
        {
          "internalType": "address",
          "name": "account",
          "type": "address"
        },
        {
          "internalType": "uint256",
          "name": "timestamp",
          "type": "uint256"
        }
      ],
      "name": "getHtml",
      "outputs": [
        {
          "internalType": "string",
          "name": "",
          "type": "string"
        }
      ],
      "stateMutability": "view",
      "type": "function"
    },
    {
      "inputs": [],
      "name": "getTimestamps",
      "outputs": [
        {
          "internalType": "uint256[]",
          "name": "",
          "type": "uint256[]"
        }
      ],
      "stateMutability": "view",
      "type": "function"
    },
    {
      "inputs": [
        {
          "internalType": "address",
          "name": "account",
          "type": "address"
        },
        {
          "internalType": "uint256",
          "name": "timestamp",
          "type": "uint256"
        }
      ],
      "name": "getYeet",
      "outputs": [
        {
          "components": [
            {
              "internalType": "address",
              "name": "account",
              "type": "address"
            },
            {
              "internalType": "uint256",
              "name": "timestamp",
              "type": "uint256"
            },
            {
              "internalType": "string",
              "name": "text",
              "type": "string"
            }
          ],
          "internalType": "struct Yeet",
          "name": "",
          "type": "tuple"
        }
      ],
      "stateMutability": "view",
      "type": "function"
    },
    {
      "inputs": [
        {
          "internalType": "uint256",
          "name": "earliest",
          "type": "uint256"
        }
      ],
      "name": "home",
      "outputs": [
        {
          "internalType": "string",
          "name": "",
          "type": "string"
        }
      ],
      "stateMutability": "view",
      "type": "function"
    },
    {
      "inputs": [
        {
          "internalType": "bytes",
          "name": "_yt",
          "type": "bytes"
        }
      ],
      "name": "html",
      "outputs": [
        {
          "internalType": "string",
          "name": "",
          "type": "string"
        }
      ],
      "stateMutability": "pure",
      "type": "function"
    },
    {
      "inputs": [
        {
          "internalType": "uint256",
          "name": "earliest",
          "type": "uint256"
        }
      ],
      "name": "latest",
      "outputs": [
        {
          "components": [
            {
              "internalType": "address",
              "name": "account",
              "type": "address"
            },
            {
              "internalType": "uint256",
              "name": "timestamp",
              "type": "uint256"
            },
            {
              "internalType": "string",
              "name": "text",
              "type": "string"
            }
          ],
          "internalType": "struct Yeet[]",
          "name": "",
          "type": "tuple[]"
        }
      ],
      "stateMutability": "view",
      "type": "function"
    },
    {
      "inputs": [
        {
          "internalType": "address",
          "name": "",
          "type": "address"
        },
        {
          "internalType": "uint256",
          "name": "",
          "type": "uint256"
        }
      ],
      "name": "me",
      "outputs": [
        {
          "internalType": "bytes",
          "name": "",
          "type": "bytes"
        }
      ],
      "stateMutability": "view",
      "type": "function"
    },
    {
      "inputs": [
        {
          "internalType": "address payable",
          "name": "y",
          "type": "address"
        },
        {
          "internalType": "uint256",
          "name": "timestamp",
          "type": "uint256"
        }
      ],
      "name": "read",
      "outputs": [
        {
          "components": [
            {
              "internalType": "address",
              "name": "account",
              "type": "address"
            },
            {
              "internalType": "uint256",
              "name": "timestamp",
              "type": "uint256"
            },
            {
              "internalType": "string",
              "name": "text",
              "type": "string"
            }
          ],
          "internalType": "struct Yeet",
          "name": "",
          "type": "tuple"
        }
      ],
      "stateMutability": "view",
      "type": "function"
    },
    {
      "inputs": [
        {
          "internalType": "bytes",
          "name": "_data",
          "type": "bytes"
        }
      ],
      "name": "save",
      "outputs": [
        {
          "internalType": "bytes",
          "name": "",
          "type": "bytes"
        }
      ],
      "stateMutability": "nonpayable",
      "type": "function"
    },
    {
      "inputs": [
        {
          "internalType": "string",
          "name": "_text",
          "type": "string"
        }
      ],
      "name": "serialize",
      "outputs": [
        {
          "internalType": "bytes",
          "name": "",
          "type": "bytes"
        }
      ],
      "stateMutability": "pure",
      "type": "function"
    },
    {
      "inputs": [
        {
          "internalType": "uint256",
          "name": "",
          "type": "uint256"
        }
      ],
      "name": "timestamps",
      "outputs": [
        {
          "internalType": "uint256",
          "name": "",
          "type": "uint256"
        }
      ],
      "stateMutability": "view",
      "type": "function"
    },
    {
      "inputs": [
        {
          "internalType": "address",
          "name": "ref",
          "type": "address"
        },
        {
          "internalType": "bytes",
          "name": "_data",
          "type": "bytes"
        }
      ],
      "name": "yeet",
      "outputs": [
        {
          "components": [
            {
              "internalType": "address",
              "name": "account",
              "type": "address"
            },
            {
              "internalType": "uint256",
              "name": "timestamp",
              "type": "uint256"
            },
            {
              "internalType": "string",
              "name": "text",
              "type": "string"
            }
          ],
          "internalType": "struct Yeet",
          "name": "",
          "type": "tuple"
        }
      ],
      "stateMutability": "nonpayable",
      "type": "function"
    },
    {
      "inputs": [
        {
          "internalType": "string",
          "name": "_text",
          "type": "string"
        }
      ],
      "name": "yeetize",
      "outputs": [
        {
          "components": [
            {
              "internalType": "address",
              "name": "account",
              "type": "address"
            },
            {
              "internalType": "uint256",
              "name": "timestamp",
              "type": "uint256"
            },
            {
              "internalType": "string",
              "name": "text",
              "type": "string"
            }
          ],
          "internalType": "struct Yeet",
          "name": "_yeet",
          "type": "tuple"
        }
      ],
      "stateMutability": "pure",
      "type": "function"
    },
    {
      "inputs": [
        {
          "internalType": "uint256",
          "name": "",
          "type": "uint256"
        },
        {
          "internalType": "uint256",
          "name": "",
          "type": "uint256"
        }
      ],
      "name": "yeets",
      "outputs": [
        {
          "internalType": "address",
          "name": "account",
          "type": "address"
        },
        {
          "internalType": "uint256",
          "name": "timestamp",
          "type": "uint256"
        },
        {
          "internalType": "string",
          "name": "text",
          "type": "string"
        }
      ],
      "stateMutability": "view",
      "type": "function"
    },
    {
      "inputs": [
        {
          "internalType": "address",
          "name": "",
          "type": "address"
        },
        {
          "internalType": "uint256",
          "name": "",
          "type": "uint256"
        }
      ],
      "name": "yeetstamps",
      "outputs": [
        {
          "internalType": "uint256",
          "name": "",
          "type": "uint256"
        }
      ],
      "stateMutability": "view",
      "type": "function"
    }
  ],
  "bytecode": "0x60806040523480156200001157600080fd5b506200005d6040518060400160405280601781526020017f4465706c6f79696e67206120596f20636f6e74726163740000000000000000008152506200006360201b62000eae1760201c565b62000138565b620000ae816040516024016200007a9190620000e8565b60408051601f198184030181529190526020810180516001600160e01b0390811663104c13eb60e21b17909152620000b116565b50565b620000ae81620000c760201b62000f091760201c565b60006a636f6e736f6c652e6c6f679050600080835160208501845afa505050565b600060208083528351808285015260005b818110156200011757858101830151858201604001528201620000f9565b506000604082860101526040601f19601f8301168501019250505092915050565b6117cd80620001486000396000f3fe608060405234801561001057600080fd5b506004361061011a5760003560e01c806359abbfe4116100b257806381d0104d116100815780639c597f5a116100665780639c597f5a146102ae578063cfdf56b4146102c1578063d7aee7a5146102d457600080fd5b806381d0104d1461027a5780638bc33af31461029b57600080fd5b806359abbfe4146101f65780635cd391301461020b5780636f394b831461021e57806380f1c3661461023157600080fd5b80632ecd9107116100ee5780632ecd91071461018e5780634142eb7d146101ae578063440a926a146101c157806350721974146101d457600080fd5b806207f4a01461011f578063014c2add1461014857806305e1f201146101685780632afcbdaa1461017b575b600080fd5b61013261012d366004610f3d565b6102e7565b60405161013f9190610fd8565b60405180910390f35b61015b61015636600461104f565b61058d565b60405161013f919061107b565b61015b61017636600461104f565b610628565b61015b610189366004611184565b610810565b6101a161019c366004611184565b610840565b60405161013f91906111b9565b6101a16101bc36600461104f565b61087b565b6101a16101cf366004610f3d565b6108b3565b6101e76101e23660046111cc565b61099d565b60405161013f939291906111ee565b6101fe610a73565b60405161013f919061121f565b6101a1610219366004611263565b610acb565b6101a161022c3660046112ac565b610b08565b61015b61023f366004611263565b604080516060808201835260008083526020830152918101919091525060408051606081018252600080825260208201529081019190915290565b61028d61028836600461104f565b610ba7565b60405190815260200161013f565b61028d6102a9366004610f3d565b610bd8565b6101a16102bc366004611184565b610bf9565b6101a16102cf36600461104f565b610d13565b61015b6102e236600461136f565b610db5565b6003546060906000905b801561036057600060036103066001846113d5565b81548110610316576103166113e8565b90600052602060002001549050848110156103315750610360565b60008181526002602052604090205461034a90846113fe565b925050808061035890611411565b9150506102f1565b5060008167ffffffffffffffff81111561037c5761037c61108e565b6040519080825280602002602001820160405280156103c957816020015b6040805160608082018352600080835260208301529181019190915281526020019060019003908161039a5790505b50600354600093509091505b801561058557600060036103ea6001846113d5565b815481106103fa576103fa6113e8565b90600052602060002001549050858110156104155750610585565b60005b60008281526002602052604090205481101561057057600082815260026020526040902080548290811061044e5761044e6113e8565b90600052602060002090600302016040518060600160405290816000820160009054906101000a90046001600160a01b03166001600160a01b03166001600160a01b03168152602001600182015481526020016002820180546104b090611428565b80601f01602080910402602001604051908101604052809291908181526020018280546104dc90611428565b80156105295780601f106104fe57610100808354040283529160200191610529565b820191906000526020600020905b81548152906001019060200180831161050c57829003601f168201915b505050505081525050848681518110610544576105446113e8565b6020026020010181905250848061055a90611462565b955050808061056890611462565b915050610418565b5050808061057d90611411565b9150506103d5565b509392505050565b6040805160608082018352600080835260208301528183015290516333f7d5ad60e21b815230600482015260248101839052839061061e906001600160a01b0383169063cfdf56b490604401600060405180830381865afa1580156105f6573d6000803e3d6000fd5b505050506040513d6000823e601f3d908101601f1916820160405261018991908101906114ab565b9150505b92915050565b60408051606080820183526000808352602083015291810191909152600082815260026020908152604080832080548251818502810185019093528083529192909190849084015b82821015610754576000848152602090819020604080516060810182526003860290920180546001600160a01b03168352600181015493830193909352600283018054929392918401916106c390611428565b80601f01602080910402602001604051908101604052809291908181526020018280546106ef90611428565b801561073c5780601f106107115761010080835404028352916020019161073c565b820191906000526020600020905b81548152906001019060200180831161071f57829003601f168201915b50505050508152505081526020019060010190610670565b50505050905060005b81518110156107d157846001600160a01b0316828281518110610782576107826113e8565b6020026020010151600001516001600160a01b0316036107bf578181815181106107ae576107ae6113e8565b602002602001015192505050610622565b806107c981611462565b91505061075d565b50604051806060016040528060006001600160a01b03168152602001600081526020016040518060200160405280600081525081525091505092915050565b604080516060808201835260008083526020830152918101919091528180602001905181019061062291906114f4565b6060600061084d83610810565b905080604001516040516020016108649190611595565b604051602081830303815290604052915050919050565b606060006108898484610628565b905061061e8160405160200161089f919061107b565b604051602081830303815290604052610840565b606060006108c0836102e7565b5167ffffffffffffffff8111156108d9576108d961108e565b60405190808252806020026020018201604052801561090c57816020015b60608152602001906001900390816108f75790505b50905060005b815181101561098c57610924846102e7565b8181518110610935576109356113e8565b602002602001015160405160200161094d919061107b565b60405160208183030381529060405282828151811061096e5761096e6113e8565b6020026020010181905250808061098490611462565b915050610912565b5061099681610b08565b9392505050565b600260205281600052604060002081815481106109b957600080fd5b60009182526020909120600390910201805460018201546002830180546001600160a01b039093169550909350906109f090611428565b80601f0160208091040260200160405190810160405280929190818152602001828054610a1c90611428565b8015610a695780601f10610a3e57610100808354040283529160200191610a69565b820191906000526020600020905b815481529060010190602001808311610a4c57829003601f168201915b5050505050905083565b60606003805480602002602001604051908101604052809291908181526020018280548015610ac157602002820191906000526020600020905b815481526020019060010190808311610aad575b5050505050905090565b60606000604051806060016040528060006001600160a01b031681526020016000815260200184815250905080604051602001610864919061107b565b60408051602081019091526000808252606091905b8351811015610b7e5781610b49858381518110610b3c57610b3c6113e8565b6020026020010151610840565b604051602001610b5a929190611617565b60405160208183030381529060405291508080610b7690611462565b915050610b1d565b5080604051602001610b909190611646565b60408051601f198184030181529190529392505050565b60016020528160005260406000208181548110610bc357600080fd5b90600052602060002001600091509150505481565b60038181548110610be857600080fd5b600091825260209091200154905081565b60606000610c0683610810565b6020818101805160009081526002808452604080832080546001808201835591855295909320865160039096020180547fffffffffffffffffffffffff0000000000000000000000000000000000000000166001600160a01b0390961695909517855592519184019190915590830151929350839290820190610c8990826116ea565b505050602081018051600380546001810182556000919091527fc2575a0e9e593c00f959f8c92f12db2869c3395a3b0502d05e2516446f71f85b01555181516040516001600160a01b03909116907fae45bf8eee3ed4c6127aa92b3c4c1b37ab51793672949434bb2ea654ffcfbb2590610d0490859061107b565b60405180910390a35090919050565b600060208181529281526040808220909352908152208054610d3490611428565b80601f0160208091040260200160405190810160405280929190818152602001828054610d6090611428565b8015610dad5780601f10610d8257610100808354040283529160200191610dad565b820191906000526020600020905b815481529060010190602001808311610d9057829003601f168201915b505050505081565b6040805160608082018352600080835260208301529181019190915230426000610dde85610810565b6001600160a01b03841681526020808201849052604051919250610e049183910161107b565b60408051601f198184030181529181526001600160a01b03881660009081526020818152828220868352905220909550610e3e86826116ea565b506001600160a01b0380871660008181526001602081815260408084208054938401815584529220018590555184928616907f42380efbdedb53cdf1e687a406d2323ec6fa43c56348fb151eb4071c15220b7590610e9d908a906111b9565b60405180910390a495945050505050565b610f0681604051602401610ec291906111b9565b60408051601f198184030181529190526020810180517bffffffffffffffffffffffffffffffffffffffffffffffffffffffff1663104c13eb60e21b179052610f2a565b50565b60006a636f6e736f6c652e6c6f679050600080835160208501845afa505050565b610f0681610f09565b610f3b6117aa565b565b600060208284031215610f4f57600080fd5b5035919050565b60005b83811015610f71578181015183820152602001610f59565b50506000910152565b60008151808452610f92816020860160208601610f56565b601f01601f19169290920160200192915050565b6001600160a01b03815116825260208101516020830152600060408201516060604085015261061e6060850182610f7a565b6000602080830181845280855180835260408601915060408160051b870101925083870160005b8281101561102d57603f1988860301845261101b858351610fa6565b94509285019290850190600101610fff565b5092979650505050505050565b6001600160a01b0381168114610f0657600080fd5b6000806040838503121561106257600080fd5b823561106d8161103a565b946020939093013593505050565b6020815260006109966020830184610fa6565b634e487b7160e01b600052604160045260246000fd5b6040516060810167ffffffffffffffff811182821017156110c7576110c761108e565b60405290565b604051601f8201601f1916810167ffffffffffffffff811182821017156110f6576110f661108e565b604052919050565b600067ffffffffffffffff8211156111185761111861108e565b50601f01601f191660200190565b6000611139611134846110fe565b6110cd565b905082815283838301111561114d57600080fd5b828260208301376000602084830101529392505050565b600082601f83011261117557600080fd5b61099683833560208501611126565b60006020828403121561119657600080fd5b813567ffffffffffffffff8111156111ad57600080fd5b61061e84828501611164565b6020815260006109966020830184610f7a565b600080604083850312156111df57600080fd5b50508035926020909101359150565b6001600160a01b03841681528260208201526060604082015260006112166060830184610f7a565b95945050505050565b6020808252825182820181905260009190848201906040850190845b818110156112575783518352928401929184019160010161123b565b50909695505050505050565b60006020828403121561127557600080fd5b813567ffffffffffffffff81111561128c57600080fd5b8201601f8101841361129d57600080fd5b61061e84823560208401611126565b600060208083850312156112bf57600080fd5b823567ffffffffffffffff808211156112d757600080fd5b818501915085601f8301126112eb57600080fd5b8135818111156112fd576112fd61108e565b8060051b61130c8582016110cd565b918252838101850191858101908984111561132657600080fd5b86860192505b83831015611362578235858111156113445760008081fd5b6113528b89838a0101611164565b835250918601919086019061132c565b9998505050505050505050565b6000806040838503121561138257600080fd5b823561138d8161103a565b9150602083013567ffffffffffffffff8111156113a957600080fd5b6113b585828601611164565b9150509250929050565b634e487b7160e01b600052601160045260246000fd5b81810381811115610622576106226113bf565b634e487b7160e01b600052603260045260246000fd5b80820180821115610622576106226113bf565b600081611420576114206113bf565b506000190190565b600181811c9082168061143c57607f821691505b60208210810361145c57634e487b7160e01b600052602260045260246000fd5b50919050565b600060018201611474576114746113bf565b5060010190565b6000611489611134846110fe565b905082815283838301111561149d57600080fd5b610996836020830184610f56565b6000602082840312156114bd57600080fd5b815167ffffffffffffffff8111156114d457600080fd5b8201601f810184136114e557600080fd5b61061e8482516020840161147b565b60006020828403121561150657600080fd5b815167ffffffffffffffff8082111561151e57600080fd5b908301906060828603121561153257600080fd5b61153a6110a4565b82516115458161103a565b81526020838101519082015260408301518281111561156357600080fd5b80840193505085601f84011261157857600080fd5b6115878684516020860161147b565b604082015295945050505050565b7f3c64697620636c6173733d2279656574223e000000000000000000000000000081527f3c64697620636c6173733d22796565742d74657874223e0000000000000000006012820152600082516115f3816029850160208701610f56565b651e17b234bb1f60d11b602993909101928301819052602f83015250603501919050565b60008351611629818460208801610f56565b83519083019061163d818360208801610f56565b01949350505050565b7f3c64697620636c6173733d22796565742d66656564223e00000000000000000081526000825161167e816017850160208701610f56565b651e17b234bb1f60d11b6017939091019283015250601d01919050565b601f8211156116e557600081815260208120601f850160051c810160208610156116c25750805b601f850160051c820191505b818110156116e1578281556001016116ce565b5050505b505050565b815167ffffffffffffffff8111156117045761170461108e565b611718816117128454611428565b8461169b565b602080601f83116001811461174d57600084156117355750858301515b600019600386901b1c1916600185901b1785556116e1565b600085815260208120601f198616915b8281101561177c5788860151825594840194600190910190840161175d565b508582101561179a5787850151600019600388901b60f8161c191681555b5050505050600190811b01905550565b634e487b7160e01b600052605160045260246000fdfea164736f6c6343000811000a",
  "linkReferences": {},
  "deployedLinkReferences": {}
}