{
  "_format": "hh-sol-artifact-1",
  "contractName": "Yo",
  "sourceName": "contracts/Yo.sol",
  "abi": [
    {
      "inputs": [],
      "stateMutability": "nonpayable",
      "type": "constructor"
    },
    {
      "anonymous": false,
      "inputs": [
        {
          "indexed": true,
          "internalType": "address",
          "name": "account",
          "type": "address"
        },
        {
          "indexed": true,
          "internalType": "uint256",
          "name": "timestamp",
          "type": "uint256"
        },
        {
          "components": [
            {
              "internalType": "address",
              "name": "account",
              "type": "address"
            },
            {
              "internalType": "string",
              "name": "username",
              "type": "string"
            },
            {
              "internalType": "string",
              "name": "avatar",
              "type": "string"
            },
            {
              "internalType": "uint256",
              "name": "timestamp",
              "type": "uint256"
            },
            {
              "internalType": "string",
              "name": "text",
              "type": "string"
            }
          ],
          "indexed": false,
          "internalType": "struct Yeet",
          "name": "data",
          "type": "tuple"
        }
      ],
      "name": "Saved",
      "type": "event"
    },
    {
      "anonymous": false,
      "inputs": [
        {
          "indexed": true,
          "internalType": "address",
          "name": "account",
          "type": "address"
        },
        {
          "indexed": true,
          "internalType": "address",
          "name": "ref",
          "type": "address"
        },
        {
          "indexed": true,
          "internalType": "uint256",
          "name": "timestamp",
          "type": "uint256"
        },
        {
          "indexed": false,
          "internalType": "bytes",
          "name": "data",
          "type": "bytes"
        }
      ],
      "name": "Yeeted",
      "type": "event"
    },
    {
      "inputs": [
        {
          "internalType": "bytes",
          "name": "_data",
          "type": "bytes"
        }
      ],
      "name": "deserialize",
      "outputs": [
        {
          "components": [
            {
              "internalType": "address",
              "name": "account",
              "type": "address"
            },
            {
              "internalType": "string",
              "name": "username",
              "type": "string"
            },
            {
              "internalType": "string",
              "name": "avatar",
              "type": "string"
            },
            {
              "internalType": "uint256",
              "name": "timestamp",
              "type": "uint256"
            },
            {
              "internalType": "string",
              "name": "text",
              "type": "string"
            }
          ],
          "internalType": "struct Yeet",
          "name": "_yeet",
          "type": "tuple"
        }
      ],
      "stateMutability": "pure",
      "type": "function"
    },
    {
      "inputs": [
        {
          "internalType": "bytes[]",
          "name": "_data",
          "type": "bytes[]"
        }
      ],
      "name": "deserializeAll",
      "outputs": [
        {
          "components": [
            {
              "internalType": "address",
              "name": "account",
              "type": "address"
            },
            {
              "internalType": "string",
              "name": "username",
              "type": "string"
            },
            {
              "internalType": "string",
              "name": "avatar",
              "type": "string"
            },
            {
              "internalType": "uint256",
              "name": "timestamp",
              "type": "uint256"
            },
            {
              "internalType": "string",
              "name": "text",
              "type": "string"
            }
          ],
          "internalType": "struct Yeet[]",
          "name": "_yeets",
          "type": "tuple[]"
        }
      ],
      "stateMutability": "pure",
      "type": "function"
    },
    {
      "inputs": [
        {
          "internalType": "bytes[]",
          "name": "_yts",
          "type": "bytes[]"
        }
      ],
      "name": "feed",
      "outputs": [
        {
          "internalType": "string",
          "name": "",
          "type": "string"
        }
      ],
      "stateMutability": "pure",
      "type": "function"
    },
    {
      "inputs": [
        {
          "internalType": "address",
          "name": "account",
          "type": "address"
        },
        {
          "internalType": "uint256",
          "name": "timestamp",
          "type": "uint256"
        }
      ],
      "name": "getHtml",
      "outputs": [
        {
          "internalType": "string",
          "name": "",
          "type": "string"
        }
      ],
      "stateMutability": "view",
      "type": "function"
    },
    {
      "inputs": [],
      "name": "getTimestamps",
      "outputs": [
        {
          "internalType": "uint256[]",
          "name": "",
          "type": "uint256[]"
        }
      ],
      "stateMutability": "view",
      "type": "function"
    },
    {
      "inputs": [
        {
          "internalType": "address",
          "name": "account",
          "type": "address"
        },
        {
          "internalType": "uint256",
          "name": "timestamp",
          "type": "uint256"
        }
      ],
      "name": "getYeet",
      "outputs": [
        {
          "components": [
            {
              "internalType": "address",
              "name": "account",
              "type": "address"
            },
            {
              "internalType": "string",
              "name": "username",
              "type": "string"
            },
            {
              "internalType": "string",
              "name": "avatar",
              "type": "string"
            },
            {
              "internalType": "uint256",
              "name": "timestamp",
              "type": "uint256"
            },
            {
              "internalType": "string",
              "name": "text",
              "type": "string"
            }
          ],
          "internalType": "struct Yeet",
          "name": "",
          "type": "tuple"
        }
      ],
      "stateMutability": "view",
      "type": "function"
    },
    {
      "inputs": [
        {
          "internalType": "uint256",
          "name": "earliest",
          "type": "uint256"
        }
      ],
      "name": "home",
      "outputs": [
        {
          "internalType": "string",
          "name": "",
          "type": "string"
        }
      ],
      "stateMutability": "view",
      "type": "function"
    },
    {
      "inputs": [
        {
          "internalType": "bytes",
          "name": "_yt",
          "type": "bytes"
        }
      ],
      "name": "html",
      "outputs": [
        {
          "internalType": "string",
          "name": "",
          "type": "string"
        }
      ],
      "stateMutability": "pure",
      "type": "function"
    },
    {
      "inputs": [
        {
          "internalType": "bytes",
          "name": "_data",
          "type": "bytes"
        }
      ],
      "name": "jsonify",
      "outputs": [
        {
          "internalType": "string",
          "name": "_json",
          "type": "string"
        }
      ],
      "stateMutability": "pure",
      "type": "function"
    },
    {
      "inputs": [
        {
          "internalType": "bytes[]",
          "name": "_data",
          "type": "bytes[]"
        }
      ],
      "name": "jsonifyAll",
      "outputs": [
        {
          "internalType": "string",
          "name": "_json",
          "type": "string"
        }
      ],
      "stateMutability": "pure",
      "type": "function"
    },
    {
      "inputs": [
        {
          "internalType": "uint256",
          "name": "earliest",
          "type": "uint256"
        }
      ],
      "name": "latest",
      "outputs": [
        {
          "components": [
            {
              "internalType": "address",
              "name": "account",
              "type": "address"
            },
            {
              "internalType": "string",
              "name": "username",
              "type": "string"
            },
            {
              "internalType": "string",
              "name": "avatar",
              "type": "string"
            },
            {
              "internalType": "uint256",
              "name": "timestamp",
              "type": "uint256"
            },
            {
              "internalType": "string",
              "name": "text",
              "type": "string"
            }
          ],
          "internalType": "struct Yeet[]",
          "name": "",
          "type": "tuple[]"
        }
      ],
      "stateMutability": "view",
      "type": "function"
    },
    {
      "inputs": [
        {
          "internalType": "address",
          "name": "",
          "type": "address"
        },
        {
          "internalType": "uint256",
          "name": "",
          "type": "uint256"
        }
      ],
      "name": "me",
      "outputs": [
        {
          "internalType": "bytes",
          "name": "",
          "type": "bytes"
        }
      ],
      "stateMutability": "view",
      "type": "function"
    },
    {
      "inputs": [],
      "name": "name",
      "outputs": [
        {
          "internalType": "string",
          "name": "",
          "type": "string"
        }
      ],
      "stateMutability": "view",
      "type": "function"
    },
    {
      "inputs": [
        {
          "internalType": "address payable",
          "name": "y",
          "type": "address"
        },
        {
          "internalType": "uint256",
          "name": "timestamp",
          "type": "uint256"
        }
      ],
      "name": "read",
      "outputs": [
        {
          "components": [
            {
              "internalType": "address",
              "name": "account",
              "type": "address"
            },
            {
              "internalType": "string",
              "name": "username",
              "type": "string"
            },
            {
              "internalType": "string",
              "name": "avatar",
              "type": "string"
            },
            {
              "internalType": "uint256",
              "name": "timestamp",
              "type": "uint256"
            },
            {
              "internalType": "string",
              "name": "text",
              "type": "string"
            }
          ],
          "internalType": "struct Yeet",
          "name": "",
          "type": "tuple"
        }
      ],
      "stateMutability": "view",
      "type": "function"
    },
    {
      "inputs": [
        {
          "internalType": "bytes",
          "name": "_data",
          "type": "bytes"
        }
      ],
      "name": "save",
      "outputs": [
        {
          "internalType": "bytes",
          "name": "",
          "type": "bytes"
        }
      ],
      "stateMutability": "nonpayable",
      "type": "function"
    },
    {
      "inputs": [
        {
          "internalType": "string",
          "name": "_text",
          "type": "string"
        }
      ],
      "name": "serialize",
      "outputs": [
        {
          "internalType": "bytes",
          "name": "",
          "type": "bytes"
        }
      ],
      "stateMutability": "pure",
      "type": "function"
    },
    {
      "inputs": [
        {
          "internalType": "uint256",
          "name": "",
          "type": "uint256"
        }
      ],
      "name": "timestamps",
      "outputs": [
        {
          "internalType": "uint256",
          "name": "",
          "type": "uint256"
        }
      ],
      "stateMutability": "view",
      "type": "function"
    },
    {
      "inputs": [
        {
          "internalType": "address",
          "name": "ref",
          "type": "address"
        },
        {
          "internalType": "bytes",
          "name": "_data",
          "type": "bytes"
        }
      ],
      "name": "yeet",
      "outputs": [
        {
          "components": [
            {
              "internalType": "address",
              "name": "account",
              "type": "address"
            },
            {
              "internalType": "string",
              "name": "username",
              "type": "string"
            },
            {
              "internalType": "string",
              "name": "avatar",
              "type": "string"
            },
            {
              "internalType": "uint256",
              "name": "timestamp",
              "type": "uint256"
            },
            {
              "internalType": "string",
              "name": "text",
              "type": "string"
            }
          ],
          "internalType": "struct Yeet",
          "name": "",
          "type": "tuple"
        }
      ],
      "stateMutability": "nonpayable",
      "type": "function"
    },
    {
      "inputs": [
        {
          "internalType": "string",
          "name": "_text",
          "type": "string"
        }
      ],
      "name": "yeetize",
      "outputs": [
        {
          "components": [
            {
              "internalType": "address",
              "name": "account",
              "type": "address"
            },
            {
              "internalType": "string",
              "name": "username",
              "type": "string"
            },
            {
              "internalType": "string",
              "name": "avatar",
              "type": "string"
            },
            {
              "internalType": "uint256",
              "name": "timestamp",
              "type": "uint256"
            },
            {
              "internalType": "string",
              "name": "text",
              "type": "string"
            }
          ],
          "internalType": "struct Yeet",
          "name": "_yeet",
          "type": "tuple"
        }
      ],
      "stateMutability": "pure",
      "type": "function"
    },
    {
      "inputs": [
        {
          "internalType": "uint256",
          "name": "",
          "type": "uint256"
        },
        {
          "internalType": "uint256",
          "name": "",
          "type": "uint256"
        }
      ],
      "name": "yeets",
      "outputs": [
        {
          "internalType": "address",
          "name": "account",
          "type": "address"
        },
        {
          "internalType": "string",
          "name": "username",
          "type": "string"
        },
        {
          "internalType": "string",
          "name": "avatar",
          "type": "string"
        },
        {
          "internalType": "uint256",
          "name": "timestamp",
          "type": "uint256"
        },
        {
          "internalType": "string",
          "name": "text",
          "type": "string"
        }
      ],
      "stateMutability": "view",
      "type": "function"
    },
    {
      "inputs": [
        {
          "internalType": "address",
          "name": "",
          "type": "address"
        },
        {
          "internalType": "uint256",
          "name": "",
          "type": "uint256"
        }
      ],
      "name": "yeetstamps",
      "outputs": [
        {
          "internalType": "uint256",
          "name": "",
          "type": "uint256"
        }
      ],
      "stateMutability": "view",
      "type": "function"
    }
  ],
  "bytecode": "0x6080346200018857600654600180821691811c82156200017f575b602092838210146200016957601f81116200013a575b5050600461596f60f01b016006556001600160401b039060408301828111848210176200010c57604052601783527f4465706c6f79696e67206120596f20636f6e74726163740000000000000000008184015260405192838281019263104c13eb60e21b845280602483015282519283604484015260005b8481106200012257505050808260006064601f95608395010152831993849101168101036044810186520116830191838310908311176200010c57600092839260405251906a636f6e736f6c652e6c6f675afa5060405161299090816200018e8239f35b634e487b7160e01b600052604160045260246000fd5b818101830151888201606401528793508201620000a8565b6006600052601f83600020910160051c8101905b8181106200015d575062000030565b6000815582016200014e565b634e487b7160e01b600052602260045260246000fd5b607f166200001a565b600080fdfe6080604052600436101561001257600080fd5b60003560e01c806207f4a014611210578063014c2add1461113a57806305e1f2011461111b57806306fdde031461104d5780632afcbdaa14610ffd5780632ecd910714610fc65780634142eb7d14610f7a578063440a926a14610ea75780635072197414610df657806359abbfe414610d405780635cd3913014610cbe5780636f394b8314610ca557806380f1c36614610c3057806381d0104d14610bda5780638bc33af314610b895780639c597f5a14610797578063c7951b9e1461072d578063cfdf56b414610650578063d3de184014610600578063d7aee7a5146102965763ed5ce6ec1461010257600080fd5b346102915761011036611588565b6040516040810181811067ffffffffffffffff82111761027b576040526001808252602091605b60f81b8382015292816000905b610198575b505060216101809160405185610168829751809288808601910161123b565b8101605d60f81b8682015203908101855201836113cc565b61019460405192828493845283019061125e565b0390f35b8151811015610276576101b46101ae8284611875565b51611889565b6101f1856040518093826101d18184019b8c81519384920161123b565b82016101e58251809386808501910161123b565b010380845201826113cc565b80958351600019810190811161026057831061021c575b5050906102158392611866565b9091610144565b8493929650610258602161021593610240936040519485925180928c85019061123b565b8101600b60fa1b8a82015203868101845201826113cc565b959192610208565b634e487b7160e01b600052601160045260246000fd5b610149565b634e487b7160e01b600052604160045260246000fd5b600080fd5b34610291576040366003190112610291576102af611344565b67ffffffffffffffff602435818111610291576102d36102e19136906004016114e7565b6102db611675565b506117a6565b9130835260405191600060035490846102f98361135a565b9182825260019384811690816000146105e15750600114610580575b610321925003856113cc565b602093848601526040516000816002549161033b8361135a565b92838352888682169182600014610563575050600114610505575b610362925003826113cc565b60408601524260608601526040519284808501526001600160a01b038461038c6040820189611283565b03916103a0601f19938481018852876113cc565b169283600052600086526040600020426000528652604060002091855191821161027b5781906103da826103d4865461135a565b866117c2565b8790601f83116001146104a9575060009161049e575b50600019600383901b1c191690831b1790555b8160005280845260406000209081546801000000000000000081101561027b5761044e92610434928201815561165d565b429082549060031b600019811b9283911b16911916179055565b604051918383527f42380efbdedb53cdf1e687a406d2323ec6fa43c56348fb151eb4071c15220b7542938061048730948883019061125e565b0390a4610194604051928284938452830190611283565b9050850151886103f0565b8593169084600052886000209160005b8a8282106104ef57505083116104d6575b5050811b019055610403565b87015160001960f88460031b161c1916905588806104ca565b838b0151855588969094019392830192016104b9565b5050600260005281867f405787fa12a823e0f2b7631cc41b3ba8828b3321ca811111fa75cd3aa3bb5ace856000915b85831061054a5750506103629350820101610356565b8091929450548385880101520191018790858593610534565b60ff19168482015261036294151560051b84010191506103569050565b509060036000527fc2575a0e9e593c00f959f8c92f12db2869c3395a3b0502d05e2516446f71f85b90836000925b8284106105c75750505090602061032192820101610315565b6020929450805483858b01015201910190918387936105ae565b6020925061032194915060ff191682840152151560051b820101610315565b346102915760203660031901126102915760043567ffffffffffffffff81116102915761063c6106376101949236906004016114e7565b611889565b60405191829160208352602083019061125e565b34610291576040366003190112610291576001600160a01b03610671611344565b16600052602060008152604060002060243560005281526040600020906040519182600082546106a08161135a565b9384845260019186838216918260001461070b5750506001146106cc575b5050610180925003836113cc565b85925060005281600020906000915b8583106106f3575050610180935082010185806106be565b805483890185015287945086939092019181016106db565b925093505061018094915060ff191682840152151560051b82010185806106be565b346102915761073b36611588565b6107458151611816565b9060005b815181101561078957806107696107636107849385611875565b516117a6565b6107738286611875565b5261077e8185611875565b50611866565b610749565b6040518061019485826112e2565b346102915760203660031901126102915760043567ffffffffffffffff8111610291576107c89036906004016114e7565b6107d1816117a6565b9060608201516000526004602052604060002080546801000000000000000081101561027b5761080691600182018155611502565b929092610b73576001600160a01b038151167fffffffffffffffffffffffff00000000000000000000000000000000000000008454161783556020810151805167ffffffffffffffff811161027b57806001860192610869826103d4865461135a565b602090601f8311600114610b0757600092610afc575b50508160011b916000199060031b1c19161790555b604081015192835167ffffffffffffffff811161027b576108c5816108bc600285015461135a565b600285016117c2565b6020601f8211600114610a895781906004949596600092610a7e575b50508160011b916000199060031b1c19161760028201555b606083015160038201550191608082015192835167ffffffffffffffff811161027b576109308161092a845461135a565b846117c2565b602094601f8211600114610a1857948192939495600092610a0d575b50508160011b916000199060031b1c19161790555b6060820151916005546801000000000000000081101561027b57610194936109928260016109ad9401600555611626565b90919082549060031b600019811b9283911b16911916179055565b6001600160a01b038151167f372feb5c046248c284bd41eace3942bb322736a73c3f45e37bc3b9f0465145486109f6606084015193604051918291602083526020830190611283565b0390a360405191829160208352602083019061125e565b01519050858061094c565b601f198216958360005260206000209160005b888110610a6657508360019596979810610a4d575b505050811b019055610961565b015160001960f88460031b161c19169055858080610a40565b91926020600181928685015181550194019201610a2b565b0151905086806108e1565b6002830160005260206000209560005b601f1984168110610ae457509582916004959697600194601f19811610610acb575b505050811b0160028201556108f9565b015160001960f88460031b161c19169055868080610abb565b82820151885560019097019660209283019201610a99565b01519050868061087f565b9250836000526020600020906000935b601f1984168510610b58576001945083601f19811610610b3f575b505050811b019055610894565b015160001960f88460031b161c19169055868080610b32565b81810151835560209485019460019093019290910190610b17565b634e487b7160e01b600052600060045260246000fd5b34610291576020366003190112610291576004356005548110156102915760209060056000527f036b6384b5eca791c62761152d0c79bb0604c104a5fb6f4eb0703f3154bb3db00154604051908152f35b3461029157604036600319011261029157610bf3611344565b6001600160a01b03602435911660005260016020526040600020805482101561029157602091610c229161165d565b90546040519160031b1c8152f35b3461029157610194610c4136611534565b610c49611675565b5060405190610c5782611394565b60008252604051610c67816113b0565b600081526020830152604051610c7c816113b0565b600081526040830152600060608301526080820152604051918291602083526020830190611283565b346102915761019461063c610cb936611588565b612593565b3461029157610194610d3261063c610cd536611534565b60405190610ce282611394565b60008252604051610cf2816113b0565b600081526020830152604051610d07816113b0565b6000815260408301526000606083015260808201526040519283916020808401526040830190611283565b03601f1981018352826113cc565b3461029157600036600319011261029157604051806005548083526020809301809160056000527f036b6384b5eca791c62761152d0c79bb0604c104a5fb6f4eb0703f3154bb3db09060005b86828210610de2578686610da2828803836113cc565b604051928392818401908285525180915260408401929160005b828110610dcb57505050500390f35b835185528695509381019392810192600101610dbc565b835485529093019260019283019201610d8c565b34610291576040366003190112610291576024356004356000526004602052604060002090815481101561029157610e2d91611502565b506001600160a01b03815416610194610e48600184016113ee565b92610e55600282016113ee565b610e94610e696004600385015494016113ee565b91610e86604051978897885260a0602089015260a088019061125e565b90868203604088015261125e565b916060850152838203608085015261125e565b346102915760208060031936011261029157600435610ec58161274b565b51610eee610ed282611570565b91610ee060405193846113cc565b808352601f19918291611570565b018460005b828110610f6b5750505060005b8251811015610f4c5780610f3b610769610f25610f4794610f208961274b565b611875565b516040519283918a808401526040830190611283565b038581018352826113cc565b610f00565b84610f5684612593565b9061019460405192828493845283019061125e565b60608582018301528101610ef3565b346102915760403660031901126102915761019461063c610d32610fc1610fab610fa2611344565b60243590612876565b6040519283916020808401526040830190611283565b611d71565b346102915760203660031901126102915760043567ffffffffffffffff81116102915761063c610fc16101949236906004016114e7565b346102915760203660031901126102915760043567ffffffffffffffff8111610291576110396110346101949236906004016114e7565b6117a6565b604051918291602083526020830190611283565b3461029157600036600319011261029157604051600060065461106f8161135a565b808452906001908181169081156110f45750600114611099575b6101948461063c818603826113cc565b6006600090815292507ff652222313e28459528d920b65115c16c04f3efc82aaedc97be59f3f377c0d3f5b8284106110dc57505050810160200161063c82611089565b805460208587018101919091529093019281016110c4565b60ff191660208087019190915292151560051b8501909201925061063c9150839050611089565b3461029157604036600319011261029157610194611039610fa2611344565b34610291576040366003190112610291576004356001600160a01b03811680910361029157600060449161116c611675565b50604051928380926333f7d5ad60e21b825230600483015260243560248301525afa908115611204576000916111a9575b610194611039836117a6565b90503d806000833e6111bb81836113cc565b8101906020818303126102915780519067ffffffffffffffff821161029157019080601f83011215610291576111fd61103991836020610194955191016116a1565b915061119d565b6040513d6000823e3d90fd5b346102915760203660031901126102915761019461122f60043561274b565b604051918291826112e2565b60005b83811061124e5750506000910152565b818101518382015260200161123e565b906020916112778151809281855285808601910161123b565b601f01601f1916010190565b6112df916001600160a01b03825116815260806112c46112b2602085015160a0602086015260a085019061125e565b6040850151848203604086015261125e565b9260608101516060840152015190608081840391015261125e565b90565b602080820190808352835180925260408301928160408460051b8301019501936000915b8483106113165750505050505090565b9091929394958480611334600193603f198682030187528a51611283565b9801930193019194939290611306565b600435906001600160a01b038216820361029157565b90600182811c9216801561138a575b602083101461137457565b634e487b7160e01b600052602260045260246000fd5b91607f1691611369565b60a0810190811067ffffffffffffffff82111761027b57604052565b6020810190811067ffffffffffffffff82111761027b57604052565b90601f8019910116810190811067ffffffffffffffff82111761027b57604052565b90604051918260008254926114028461135a565b908184526001948581169081600014611471575060011461142e575b505061142c925003836113cc565b565b9093915060005260209081600020936000915b81831061145957505061142c9350820101388061141e565b85548884018501529485019487945091830191611441565b91505061142c94506020925060ff191682840152151560051b820101388061141e565b67ffffffffffffffff811161027b57601f01601f191660200190565b9291926114bc82611494565b916114ca60405193846113cc565b829481845281830111610291578281602093846000960137010152565b9080601f83011215610291578160206112df933591016114b0565b805482101561151e576000526005602060002091020190600090565b634e487b7160e01b600052603260045260246000fd5b6020600319820112610291576004359067ffffffffffffffff82116102915780602383011215610291578160246112df936004013591016114b0565b67ffffffffffffffff811161027b5760051b60200190565b602080600319830112610291576004359167ffffffffffffffff8084116102915781602385011215610291578360040135916115c383611570565b946115d160405196876113cc565b838652848601916024809560051b8301019481861161029157808301935b86851061160157505050505050505090565b843586811161029157889161161b858585948901016114e7565b8152019401936115ef565b60055481101561151e5760056000527f036b6384b5eca791c62761152d0c79bb0604c104a5fb6f4eb0703f3154bb3db00190600090565b805482101561151e5760005260206000200190600090565b6040519061168282611394565b6060608083600081528260208201528260408201526000838201520152565b909291926116ae81611494565b916116bc60405193846113cc565b82948284528282011161029157602061142c93019061123b565b9080601f830112156102915781516112df926020016116a1565b9060208282031261029157815167ffffffffffffffff9283821161029157019060a082820312610291576040519260a084018481108282111761027b5760405282516001600160a01b03811681036102915784526020830151818111610291578261175c9185016116d6565b6020850152604083015181811161029157826117799185016116d6565b60408501526060830151606085015260808301519081116102915761179e92016116d6565b608082015290565b6112df906117b2611675565b50602080825183010191016116f0565b90601f81116117d057505050565b600091825260208220906020601f850160051c8301941061180c575b601f0160051c01915b82811061180157505050565b8181556001016117f5565b90925082906117ec565b9061182082611570565b61182d60405191826113cc565b828152809261183e601f1991611570565b019060005b82811061184f57505050565b60209061185a611675565b82828501015201611843565b60001981146102605760010190565b805182101561151e5760209160051b010190565b61189d6020918280825183010191016116f0565b8051916001600160a01b038316918263ffffffff60009560801c1680611bdf575b508060401c80611bd2575b5080831c80611bc5575b5060109080821c80611bb8575b5060081c611bae575b6001809501939084861b947f7fffffffffffffffffffffffffffffffffffffffffffffffffffffffffffffff8116036102605760028501958686116102605761194a61193488611494565b97611942604051998a6113cc565b808952611494565b8786019690601f190136883787511561151e5760308753875182101561151e57607860218901538181018091116102605791905b808311611b6a57505050611b2757926112df9282611b0486605f956119f9980151604082015160806119b36060850151611beb565b930151956040519a8b98607b60f81b888b01527f226163636f756e74223a2200000000000000000000000000000000000000000060218b0152518092602c8b019061123b565b87019161088b60f21b9283602c8201527f22757365726e616d65223a220000000000000000000000000000000000000000602e820152611a428251809389603a8501910161123b565b0182603a8201527f22617661746172223a2200000000000000000000000000000000000000000000603c820152611a82825180938860468501910161123b565b019060468201527f2274696d657374616d70223a00000000000000000000000000000000000000006048820152611ac2825180938660548501910161123b565b0191600b60fa1b60548401527f2274657874223a2200000000000000000000000000000000000000000000000060558401528351938491605d8501910161123b565b01601160f91b605d820152607d60f81b605e82015203603f8101845201826113cc565b6064826040519062461bcd60e51b825280600483015260248201527f537472696e67733a20686578206c656e67746820696e73756666696369656e746044820152fd5b909192600f8116908382101561151e576f181899199a1a9b1b9c1cb0b131b232b360811b611ba7921a611b9d868b611d53565b5360041c93611d64565b919061197e565b93600101936118e9565b60029150950194386118e0565b60049150940193386118d3565b60089150940193386118c9565b601095509050386118be565b806000917a184f03e93ff9f4daa797ed6e38ed64bf6a1f01000000000000000080821015611d45575b506d04ee2d6d415b85acef810000000080831015611d36575b50662386f26fc1000080831015611d27575b506305f5e10080831015611d18575b5061271080831015611d09575b506064821015611cf9575b600a80921015611cef575b60019081602181860195611c8487611494565b96611c9260405198896113cc565b808852611ca1601f1991611494565b01366020890137860101905b611cb9575b5050505090565b600019019083906f181899199a1a9b1b9c1cb0b131b232b360811b8282061a835304918215611cea57919082611cad565b611cb2565b9160010191611c71565b9190606460029104910191611c66565b60049193920491019138611c5b565b60089193920491019138611c4e565b60109193920491019138611c3f565b60209193920491019138611c2d565b604093508104915038611c14565b90815181101561151e570160200190565b8015610260576000190190565b611d7a906117a6565b6112df6104ef7f2220616c743d2261766174617222207374796c653d2277696474683a2036347060408401516001600160a01b03611dc6611dbd82885116612491565b91875116612491565b9060209283880151976080611dde6060830151611beb565b91015191604051998a9788927f3c646976207374796c653d2277696474683a2033363070783b206d617267696e898501527f2d746f703a20313070783b206d617267696e2d626f74746f6d3a20313070783b60408501527f2070616464696e673a20313070783b20666f6e742d66616d696c793a204c756360608501527f6964612053616e732c2073616e732d73657269663b20646973706c61793a206660808501527f6c65783b206261636b67726f756e642d636f6c6f723a20233131313b223e000060a08501527f3c6469762069643d22796565742d61766174617222207374796c653d22666c6560be8501527f783a20313b2070616464696e672d72696768743a2031307078223e000000000060de8501527f3c696d67207372633d220000000000000000000000000000000000000000000060f9850152611f2e815180928b610103809801910161123b565b8901928301527f783b206865696768743a20363470783b20626f782d736861646f773a203070786101238301527f2034707820347078207267626128302c20302c20302c20302e31293b222f3e006101438301527f3c6469762069643d22796565742d6163636f756e7422207374796c653d22636f6101628301527f6c6f723a20233636363b20666f6e742d73697a653a20313270783b206d6172676101828301527f696e2d746f703a203870783b2077696474683a20363470783b20646973706c616101a28301527f793a20666c65783b206a7573746966792d636f6e74656e743a2073706163652d6101c28301527f6265747765656e3b206f766572666c6f773a2068696464656e3b223e000000006101e28301527f3c646976207374796c653d2277686974652d73706163653a206e6f777261703b806101fe840152877f206f766572666c6f773a2068696464656e3b20746578742d6f766572666c6f77938461021e8201527f3a20636c69703b20746578742d616c69676e3a206c6566743b2077696474683a61023e8201527f20323670783b223e00000000000000000000000000000000000000000000000061025e8201528751906120fb826102669a858c8501910161123b565b0196651e17b234bb1f60d11b98888a99968a979588809795819601528061026c8401527f206f766572666c6f773a2073686f773b20666f6e742d73697a653a203132707861028c84015261111f60f11b6102ac8401526217171760e91b6102ae840152846102b18401526102b78301526102d78201527f3a20636c69703b20746578742d616c69676e3a2072696768743b2064697265636102f78201527f74696f6e3a2072746c3b2077696474683a20323870783b223e000000000000006103178201526121d48251809361033096878501910161123b565b0191820152816103368201528161033c8201527f3c646976207374796c653d22666c65783a20353b206d617267696e2d6c6566746103428201527f3a2031307078223e0000000000000000000000000000000000000000000000006103628201527f3c646976207374796c653d22646973706c61793a20666c65783b206a7573746961036a8201527f66792d636f6e74656e743a2073706163652d6265747765656e3b20616c69676e61038a8201527f2d6974656d733a20666c65782d73746172743b223e00000000000000000000006103aa8201527f3c6469763e0000000000000000000000000000000000000000000000000000006103bf8201527f3c6469762069643d22796565742d757365726e616d6522207374796c653d22666103c48201527f6f6e742d7765696768743a20626f6c643b20636f6c6f723a2023363636223e006103e482015282519061233582610403958c878501910161123b565b0191820152816104098201527f3c6469762069643d22796565742d74696d657374616d7022207374796c653d2261040f8201527f636f6c6f723a20233939393b20666f6e742d73697a653a2031327078223e000061042f8201528251906123a58261044d958a878501910161123b565b0191820152826104538201527f3c6469762069643d22796565742d7465787422207374796c653d226d617267696104598201527f6e2d746f703a20313070783b20666f6e742d73697a653a20313470783b20636f6104798201527f6c6f723a20233939393b20646973706c61793a20666c65783b206a75737469666104998201527f792d636f6e74656e743a206c6566743b20746578742d616c69676e3a206c65666104b9820152633a1d911f60e11b6104d9820152612470825180936104dd97888501910161123b565b0192830152806104e38301526104e9820152036104cf8101845201826113cc565b6001600160a01b0316604051906060820182811067ffffffffffffffff82111761027b57604052602a825260208201604036823782511561151e5760309053815160019081101561151e57607860218401536029905b80821161253b5750506124f75790565b606460405162461bcd60e51b815260206004820152602060248201527f537472696e67733a20686578206c656e67746820696e73756666696369656e746044820152fd5b9091600f811690601082101561257e576f181899199a1a9b1b9c1cb0b131b232b360811b612578921a61256e8587611d53565b5360041c92611d64565b906124e7565b60246000634e487b7160e01b81526032600452fd5b90604080516125a1816113b0565b600081526000905b84518210156125f1576125eb906125e56125cc6125c68589611875565b51611d71565b918551809382516101d18160209586808701910161123b565b91611866565b906125a9565b7f3a2033363070783b20666f6e742d66616d696c793a20417269616c2c2073616e93945060b39150916112df9281519485927f3c6469762069643d22796565742d6665656422207374796c653d22776964746860208501528301527f732d73657269663b20646973706c61793a20666c65783b20666c65782d64697260608301527f656374696f6e3a20636f6c756d6e3b206d61782d77696474683a20313030252060808301527f21696d706f7274616e743b223e0000000000000000000000000000000000000060a08301526126d281518092602060ad8601910161123b565b8101651e17b234bb1f60d11b60ad8201520360938101845201826113cc565b906040516126fe81611394565b6080612746600483956001600160a01b038154168552612720600182016113ee565b6020860152612731600282016113ee565b604086015260038101546060860152016113ee565b910152565b600554806000815b61280e575b6127629150611816565b906000815b612773575b5050905090565b60001982018281116102605761278890611626565b90549060031b1c93808510612808576000915b856000526004602052604080600020548410156127f0576127ea916127cf6127c9866127e494600020611502565b506126f1565b6127d98289611875565b5261077e8188611875565b92611866565b9161279b565b50939450916127ff9150611d64565b90929181612767565b5061276c565b60001982018281116102605761282390611626565b90549060031b1c84811061287057600052600480602052604060002054820180921161285b57506128549091611d64565b9081612753565b601190634e487b7160e01b6000525260246000fd5b50612758565b9061287f611675565b5060009081526020916004835260409283832092835461289e81611570565b946128ab875196876113cc565b81865282528282208290848088015b848410612964575050505050805b8451811015612910576001600160a01b03806128e48388611875565b515116908516146128fd576128f890611866565b6128c8565b939250505061290c9250611875565b5190565b50925092905080519261292284611394565b828452815190612931826113b0565b8382528401528051612942816113b0565b82815281840152816060840152519061295a826113b0565b8152608082015290565b600191600591612973856126f1565b81520192019201919085906128ba56fea164736f6c6343000811000a",
  "linkReferences": {},
  "deployedLinkReferences": {}
}